:100000000C9462000C948A000C948A000C948A0070
:100010000C948A000C948A000C948A000C948A0038
:100020000C948A000C948A000C948A000C948A0028
:100030000C948A000C948A000C948A000C948A0018
:100040000C9415020C948A000C9485020C945F02A7
:100050000C948A000C948A000C948A000C948A00F8
:100060000C948A000C948A000000000025002800EF
:100070002B0000000000240027002A0000000000E0
:1000800023002600290004040404040404040202DA
:100090000202020203030303030301020408102007
:1000A0004080010204081020010204081020000012
:1000B0000008000201000003040700000000000027
:1000C00000006D0411241FBECFEFD8E0DEBFCDBF0E
:1000D00011E0A0E0B1E0E8E8F9E002C005900D927F
:1000E000AA32B107D9F722E0AAE2B1E001C01D921D
:1000F000A230B207E1F710E0C2E6D0E004C02197D9
:10010000FE010E94BC04C136D107C9F70E94B702A4
:100110000C94C2040C94000090E0FC01E255FF4FE7
:100120002491FC01E656FF4F3491FC01EA57FF4F42
:10013000E491EE23C1F1222339F02330E9F090F469
:10014000213001F1223011F1F0E0EE0FFF1FE458F1
:10015000FF4FA591B491EC91E32381E090E029F564
:1001600080E008952730A9F02830C9F0243061F7E5
:10017000809180008F7D03C0809180008F77809375
:100180008000E2CF84B58F7784BDDECF84B58F7DCC
:10019000FBCF8091B0008F778093B000D5CF809156
:1001A000B0008F7DF9CF80E090E008953FB7F894DC
:1001B0008091610190916201A0916301B09164010D
:1001C00026B5A89B05C02F3F19F00196A11DB11DB2
:1001D0003FBFBA2FA92F982F8827BC01CD01620FEE
:1001E000711D811D911D42E0660F771F881F991FA9
:1001F0004A95D1F70895AF92BF92CF92DF92EF92D6
:10020000FF920F931F93CF93DF936C017B018B01C0
:10021000040F151FEB015E01AE18BF08C017D10710
:1002200059F06991D601ED91FC910190F081E02D9A
:10023000C6010995892B79F7C501DF91CF911F91EF
:100240000F91FF90EF90DF90CF90BF90AF90089507
:10025000FC01538D448D252F30E0842F90E0821BCC
:10026000930B541710F0CF96089501970895FC0151
:10027000918D828D981761F0A28DAE0FBF2FB11DA9
:100280005D968C91928D9F5F9F73928F90E0089501
:100290008FEF9FEF0895FC01918D828D981731F0BB
:1002A000828DE80FF11D858D90E008958FEF9FEF0F
:1002B0000895FC01918D228D892F90E0805C9F4FE5
:1002C000821B91098F739927089585E691E00E941A
:1002D000590121E0892B09F420E0822F089580E064
:1002E00090E0892B29F00E94650181110C94000097
:1002F0000895FC01A48DA80FB92FB11DA35ABF4FBB
:100300002C91848D90E001968F739927848FA68914
:10031000B7892C93A089B1898C91837080648C9368
:10032000938D848D981306C00288F389E02D808117
:100330008F7D80830895EF92FF920F931F93CF9349
:10034000DF93EC0181E0888F9B8D8C8D98131AC010
:10035000E889F989808185FF15C09FB7F894EE89F7
:10036000FF896083E889F989808183708064808354
:100370009FBF81E090E0DF91CF911F910F91FF909F
:10038000EF900895F62E0B8D10E00F5F1F4F0F7347
:100390001127E02E8C8D8E110CC00FB607FCFACF02
:1003A000E889F989808185FFF5CFCE010E94790126
:1003B000F1CFEB8DEC0FFD2FF11DE35AFF4FF082D3
:1003C0009FB7F8940B8FEA89FB8980818062CFCF39
:1003D000CF93DF93EC01888D8823B9F0AA89BB897C
:1003E000E889F9898C9185FD03C0808186FD0DC067
:1003F0000FB607FCF7CF8C9185FFF2CF808185FF88
:10040000EDCFCE010E947901E9CFDF91CF91089520
:10041000FC0101900020E9F73197AF01481B590B0F
:10042000BC0185E691E00C94FB001F920F920FB681
:100430000F9211242F933F938F939F93AF93BF936A
:1004400080915D0190915E01A0915F01B09160018A
:1004500030915C0123E0230F2D3758F50196A11D43
:10046000B11D20935C0180935D0190935E01A09388
:100470005F01B09360018091610190916201A09150
:100480006301B09164010196A11DB11D80936101CA
:1004900090936201A0936301B0936401BF91AF9107
:1004A0009F918F913F912F910F900FBE0F901F90B2
:1004B000189526E8230F0296A11DB11DD2CF1F92D9
:1004C0000F920FB60F9211242F933F934F935F9388
:1004D0006F937F938F939F93AF93BF93EF93FF930C
:1004E00085E691E00E947901FF91EF91BF91AF9174
:1004F0009F918F917F916F915F914F913F912F913C
:100500000F900FBE0F901F9018951F920F920FB66D
:100510000F9211242F938F939F93EF93FF93E0916A
:100520007501F09176018081E0917B01F0917C0171
:1005300082FD1BC0908180917E018F5F8F7320911F
:100540007F01821741F0E0917E01F0E0EB59FE4F10
:10055000958F80937E01FF91EF919F918F912F91C5
:100560000F900FBE0F901F9018958081F4CFCF93FE
:10057000DF93CDB7DEB7A5970FB6F894DEBF0FBEF9
:10058000CDBF789484B5826084BD84B5816084BD1C
:1005900085B5826085BD85B5816085BD80916E0021
:1005A000816080936E001092810080918100826052
:1005B000809381008091810081608093810080918F
:1005C00080008160809380008091B100846080937E
:1005D000B1008091B00081608093B00080917A007A
:1005E000846080937A0080917A00826080937A00A0
:1005F00080917A00816080937A0080917A0080688F
:1006000080937A001092C100E0917501F09176011B
:1006100082E08083E0917101F09172011082E0919B
:100620007301F09174018FEC808310927D01E09151
:100630007901F0917A0186E08083E0917701F09171
:100640007801808180618083E0917701F091780169
:10065000808188608083E0917701F09178018081CA
:1006600080688083E0917701F091780180818F7DAF
:10067000808302E111E0D8018D918D0190E0FC01B1
:10068000E656FF4F24918A579F4FFC01849188239F
:10069000C9F090E0880F991FFC01EE58FF4FA5911B
:1006A000B491FC01E859FF4F459154919FB7F894DC
:1006B0008C91E22FE0958E238C93DA018C91E823C4
:1006C000EC939FBFB1E00C311B07A9F60E94D60046
:1006D0004B015C0164E6C62ED12CE12CF12C0E946A
:1006E000D600681979098A099B09683E734081051B
:1006F0009105A8F3E1E0CE1AD108E108F108F8EE7F
:100700008F0EF3E09F1EA11CB11CC114D104E104A3
:10071000F10429F73AE2C32E31E0D32E42E5A42EAC
:1007200041E0B42E52E1E52E51E0F52ED7018D9136
:100730007D010E948C0021E0892B09F420E0F50165
:1007400021935F012FB7F89480915D0190915E0134
:10075000A0915F01B09160012FBFF6018193919349
:10076000A193B1936F010E151F0501F78CE191E084
:100770000E94080282E291E00E9408028FB7F8947A
:10078000C0905D01D0905E01E0905F01F09060014B
:100790008FBF0AE211E082E5882E81E0982E92E177
:1007A000292E91E0392E412C512C32014394D10154
:1007B0008D911D010E948C00F4012081892B09F08C
:1007C0006FC0222309F445C0F80180819181A28184
:1007D000B381A7019601281B390B4A0B5B0BDA0189
:1007E000C9014997A105B105A0F185E291E00E94F8
:1007F000080219A24AA25BA26CA27DA25E0131E2AC
:10080000A30EB11C6AA17BA18CA19DA12AE030E0BE
:1008100040E050E00E949A04605DD5016E935D0156
:100820002AA13BA14CA15DA12A303105410551050A
:1008300071F1109719F0CD010E94080282E291E057
:100840000E940802D4011C92F801C082D182E28287
:10085000F382BFEF8B1A9B0A0C5F1F4FEFEF4E1A0C
:100860005E0A6E0A7E0AFBE04F16510461047104B1
:1008700009F09DCF20E030E0232B09F47FCF0E94C8
:100880006501882309F47ACF0E94000077CF81E0C8
:1008900090E0A0E0B0E08AA39BA3ACA3BDA3B2CF3D
:1008A0002111D7CFF80180819181A281B381A70165
:1008B0009601281B390B4A0B5B0BDA01C9014997DA
:1008C000A105B10530F2E1E0D401EC93D801CD925D
:1008D000DD92ED92FC921397BCCFE5E6F1E0138236
:1008E000128288EE93E0A0E0B0E084839583A68333
:1008F000B78384E091E09183808385EC90E09587D5
:10090000848784EC90E09787868780EC90E0918BD9
:10091000808B81EC90E0938B828B82EC90E0958BC6
:10092000848B86EC90E0978B868B118E128E138EC3
:10093000148E0895A1E21A2EAA1BBB1BFD010DC047
:10094000AA1FBB1FEE1FFF1FA217B307E407F5077F
:1009500020F0A21BB30BE40BF50B661F771F881F5B
:10096000991F1A9469F760957095809590959B01F1
:10097000AC01BD01CF010895EE0FFF1F0590F4916A
:08098000E02D0994F894FFCF6B
:10098800000000009B01FB002801E8015901370124
:100998004B010B0A090807060504030252454144A6
:0A09A80059000D0A0042544E3A00B7
:00000001FF
